:0200000080007E
:02000100B00746
:02000200850077
:02000300950165
:02000400D10128
:02000500700089
:02000600800078
:02000700B00245
:020008008F0067
:02000900CC0821
:02000A0085006F
:02000B00B5033B
:02000C00CD091C
:02000D00800071
:02000E00B0043C
:02000F00CC0A19
:02001000850069
:02001100B50533
:02001200CD0B14
:020013008A0061
:02001400BA062A
:02001500CE0C0F
:020016009F0148
:02001700EB0AF2
:020018008F0057
:02001900BC0821
:02001A00BD0A1D
:02001B00218042
:02001C00CE0014
:02001D00BC091C
:02001E00BD0B18
:02001F006180FE
:02002000CE010F
:0200210070006D
:020022008F004D
:02002300BE0C11
:020024000000DA
:020025009F0238
:020026000000D8
:02002700EB0AE2
:020028008F0047
:02002900BC0811
:02002A00BD0A0D
:02002B00318022
:02002C00CE0004
:02002D00BC090C
:02002E00BD0B08
:02002F005180FE
:02003000CE01FF
:0200310070005D
:020032008F003D
:02003300BE0C01
:020034009F0427
:02003500EB0AD4
:020036008F0039
:02003700BC0803
:02003800BD0AFF
:02003900018044
:02003A00CE00F6
:02003B00BC09FE
:02003C00BD0BFA
:02003D00018040
:02003E00CE01F1
:02003F0070004F
:020040008F002F
:02004100BE0CF3
:020042009F0815
:02004300EB11BF
:020044008F002B
:02004500BC09F4
:02004600BD0BF0
:02004700D105E1
:020048004180F5
:020049008F0026
:02004A00CF00E5
:02004B00CE01E4
:02004C00700042
:02004D008F0022
:02004E00BC08EC
:02004F00BD0AE8
:020050004180ED
:020051008F001E
:02005200CF00DD
:02005300CE01DC
:0200540070003A
:020055008F001A
:02005600BE0CDE
:020057009F10F8
:02005800EB09B2
:020059008F0016
:02005A00BC08E0
:02005B00BD0ADC
:02005C00118011
:02005D00CE00D3
:02005E00BC09DB
:02005F00BD0BD7
:0200600011800D
:02006100CE01CE
:0200620070002C
:0200630000009B
:0200640000009A
:02006500000099
:02006600000098
:02006700000097
:02006800000096
:02006900000095
:02006A00000094
:02006B00000093
:02006C00000092
:02006D00000091
:02006E00000090
:02006F0000008F
:0200700000008E
:0200710000008D
:0200720000008C
:0200730000008B
:0200740000008A
:02007500000089
:02007600000088
:02007700000087
:02007800000086
:02007900000085
:02007A00000084
:02007B00000083
:02007C00000082
:02007D00000081
:02007E00000080
:02007F0000007F
:0200800000007E
:0200810000007D
:0200820000007C
:0200830000007B
:0200840000007A
:02008500000079
:02008600000078
:02008700000077
:02008800000076
:02008900000075
:02008A00000074
:02008B00000073
:02008C00000072
:02008D00000071
:02008E00000070
:02008F0000006F
:0200900000006E
:0200910000006D
:0200920000006C
:0200930000006B
:0200940000006A
:02009500000069
:02009600000068
:02009700000067
:02009800000066
:02009900000065
:02009A00000064
:02009B00000063
:02009C00000062
:02009D00000061
:02009E00000060
:02009F0000005F
:0200A00000005E
:0200A10000005D
:0200A20000005C
:0200A30000005B
:0200A40000005A
:0200A500000059
:0200A600000058
:0200A700000057
:0200A800000056
:0200A900000055
:0200AA00000054
:0200AB00000053
:0200AC00000052
:0200AD00000051
:0200AE00000050
:0200AF0000004F
:0200B00000004E
:0200B10000004D
:0200B20000004C
:0200B30000004B
:0200B40000004A
:0200B500000049
:0200B600000048
:0200B700000047
:0200B800000046
:0200B900000045
:0200BA00000044
:0200BB00000043
:0200BC00000042
:0200BD00000041
:0200BE00000040
:0200BF0000003F
:0200C00000003E
:0200C10000003D
:0200C20000003C
:0200C30000003B
:0200C40000003A
:0200C500000039
:0200C600000038
:0200C700000037
:0200C800000036
:0200C900000035
:0200CA00000034
:0200CB00000033
:0200CC00000032
:0200CD00000031
:0200CE00000030
:0200CF0000002F
:0200D00000002E
:0200D10000002D
:0200D20000002C
:0200D30000002B
:0200D40000002A
:0200D500000029
:0200D600000028
:0200D700000027
:0200D800000026
:0200D900000025
:0200DA00000024
:0200DB00000023
:0200DC00000022
:0200DD00000021
:0200DE00000020
:0200DF0000001F
:0200E00000001E
:0200E10000001D
:0200E20000001C
:0200E30000001B
:0200E40000001A
:0200E500000019
:0200E600000018
:0200E700000017
:0200E800000016
:0200E900000015
:0200EA00000014
:0200EB00000013
:0200EC00000012
:0200ED00000011
:0200EE00000010
:0200EF0000000F
:0200F00000000E
:0200F10000000D
:0200F20000000C
:0200F30000000B
:0200F40000000A
:0200F500000009
:0200F600000008
:0200F700000007
:0200F800000006
:0200F900000005
:0200FA00000004
:0200FB00000003
:0200FC00000002
:0200FD00000001
:0200FE00000000
:0200FF000000FF
:00000001FF
